:100000000C9427100C9458100C9458100C94581001
:100010000C9458100C9458100C9458100C945810C0
:100020000C9458100C9458100C9458100C945810B0
:100030000C9458100C9458100C9458100C945810A0
:100040000C9458100C9455770C9458100C9458102C
:100050000C9458100C9458100C945C700C94426DD5
:100060000C9458100C949F770C9495770C9458101E
:100070000C9458100C9458100C9458100C94581060
:100080000C9458100C9458100C9458100C94581050
:100090000C9458100C9458100C9458100C948C6DAF
:1000A0000C9458100C9458100C9458100C94581030
:1000B0000C9458100C9458100C9458100C94581020
:1000C0000C9458100C9458100C9458100C94581010
:1000D0000C9458100C9458100C9458100C94581000
:1000E0000C945810084AD73B3BCE016E84BCBFFD30
:1000F000C12F3D6C74319ABD56833DDA3D00C77FF8
:1001000011BED9E4BB4C3E916BAAAABE0000008090
:100110003F05A84CCDB2D44EB93836A9020C50B91F
:10012000918688083CA6AAAA2ABE000000803F004B
:100130000C94E6290C942D120C9418800C94C7286A
:100140000C94F8100C949D2A0C94D3100C940D115F
:100150000C94B2280C94AC280C9446780C942F1173
:100160000C9488120C94FE100C9447160C94096F92
:100170000C9421780C94B6280C942E2A0C949C1282
:100180000C94782A0C94C22A0C9452780C94D1289E
:100190000C9419120C94C3280C9474120C944E787D
:1001A0000C9406110C947A280C9402110C944712AA
:1001B0000C94C0280C9414700C94532A0C94A52809
:1001C0000C940A110C9451120C943F120C94CD28EB
:1001D0000C9425160C9413110C943B780C94C329A1
:1001E0000C94552B0C945B100C940F700C94A3166C
:1001F0000C9474160C944A780C9414120C94F96EA6
:100200000C9449700C940C120C9439110C947929AB
:100210000C9438110C9454290C943D110C941D111C
:100220000C9417110C9492120C945A100C943712CF
:100230000C940C2B0C9424160C9427700C942B11FA
:100240000C945A780C94AF280C9434160C94337098
:100250000C9442780C94A8280C9423120C944670A9
:100260000C9434290C94312B0C94BD280C943078C8
:100270000C949E290C94092A0C9433110C947E1230
:100280000C94E6770C9425110C94D4280C9408292E
:100290000C9465120C94CA280C9475280C94A61220
:1002A0000C94A2790C945B120C9421110C94E72A03
:1002B0000C94B9284E414E494E495459494E46CDA9
:1002C000CCCC3D0AD7233C17B7D13877CC2B32950D
:1002D00095E6241FB14F0A000020410000C84200EB
:1002E000401C4620BCBE4CCA1B0E5AAEC59D7400B5
:1002F000407A10F35A00A0724E18090010A5D4E8F5
:100300000000E87648170000E40B54020000CA9A87
:100310003B000000E1F505000080969800000040D9
:10032000420F000000A0860100000010270000001E
:1003300000E803000000006400000000000A000064
:100340000000000100000000002C76D888DC674F18
:100350000823DFC1DFAE59E1B1B796E5E3E453C648
:100360003AE651997696E8E6C28426EB898C9B6240
:10037000ED407C6FFCEFBC9C9F40F2BAA56FA5F4EA
:1003800090055A2AF75C936B6CF9676DC11BFCE012
:10039000E40D47FEF520E6B500D0ED902E03009465
:1003A0003577050080841E080000204E0A000000FA
:1003B000C80C333333330F986E12831141EF8D2104
:1003C00014893BE65516CFFEE6DB18D1844B381B6B
:1003D000F77C1D901DA4BBE424203284725E228130
:1003E00000C9F124ECA1E53D275A5F53544F505FFB
:1003F00050494E005A5F535445505F50494E005A81
:100400005F4D41585F50494E005A5F454E41424C46
:10041000455F50494E005A5F4449525F50494E0073
:10042000595F53544F505F50494E00595F535445E4
:10043000505F50494E00595F4D494E5F50494E0044
:10044000595F454E41424C455F50494E00595F440B
:1004500049525F50494E00585F53544F505F5049C6
:100460004E00585F535445505F50494E00585F4D01
:1004700041585F50494E00585F454E41424C455FE0
:1004800050494E00585F4449525F50494E00534511
:1004900052564F335F50494E00534552564F325FCC
:1004A00050494E00534552564F315F50494E00530C
:1004B0004552564F305F50494E00534453530052FB
:1004C000414D50535F44395F50494E0052414D50A9
:1004D000535F44385F50494E0052414D50535F4482
:1004E00031305F50494E004D4158363637355F53F5
:1004F000535F50494E004C45445F50494E004845BB
:10050000415445525F4245445F50494E0048454181
:100510005445525F305F50494E0046414E5F50494E
:100520004E0045315F535445505F50494E004531B0
:100530005F454E41424C455F50494E0045315F4456
:1005400049525F50494E0045315F43535F50494E19
:100550000045305F535445505F50494E0045305F71
:10056000454E41424C455F50494E0045305F44493D
:10057000525F50494E00455F4D5558325F50494ECD
:1005800000455F4D5558315F50494E00455F4D5510
:1005900058305F50494E00434153455F4C494748EE
:1005A000545F50494E004A4F595F585F50494E00C2
:1005B0004156525F53535F50494E004156525F536C
:1005C000434B5F50494E004156525F4D4F53495F78
:1005D00050494E004156525F4D49534F5F50494E6E
:1005E0000054584430005258443000434F4D4D554C
:1005F0004E49434154494F4E0044525952554E00C2
:100600004552524F525300494E464F004543484FC2
:1006100000627573793A2070617573656420666F46
:100620007220696E7075740A00627573793A207071
:10063000617573656420666F7220757365720A0058
:10064000627573793A2070726F63657373696E6750
:100650000A002121204B494C4C206361757365646D
:1006600020627920746F6F206D75636820696E61F8
:1006700063746976652074696D65202D20637572D9
:1006800072656E7420636F6D6D616E643A20005008
:1006900072696E7465722073746F70706564206423
:1006A000756520746F206572726F72732E204669B3
:1006B0007820746865206572726F7220616E6420A4
:1006C000757365204D39393920746F2072657374E4
:1006D0006172742E202854656D7065726174757234
:1006E000652069732072657365742E2053657420CC
:1006F00069742061667465722072657374617274C6
:10070000696E67290A004E6F20436865636B7375D5
:100710006D2077697468206C696E65206E756D62F6
:1007200065722C204C617374204C696E653A200010
:10073000636865636B73756D206D69736D61746358
:10074000682C204C617374204C696E653A20004C13
:10075000696E65204E756D626572206973206E6FDB
:1007600074204C617374204C696E65204E756D6207
:1007700065722B312C204C617374204C696E653A84
:1007800020004D313130006563686F3A0045727268
:100790006F723A0050574D3A2020253464002020D3
:1007A0002020434F4D002020206E6F6E2D7374610A
:1007B0006E646172642050574D206D6F6465002037
:1007C0002020636F6D7061726520696E746572724E
:1007D00075707420656E61626C6564002020206F06
:1007E000766572666C6F7720696E7465727275706B
:1007F0007420656E61626C6564002020202054497D
:100800004D534B00423A20002020202054434352B5
:1008100000413A20002020202043533A200020208D
:10082000202057474D3A20002020202054494D4594
:10083000520020697320616C736F207469656420B5
:10084000746F20746869732070696E0054494D4557
:10085000523143000A202E002020506F72743A203B
:1008600000202020416E616C6F6720696E203D2062
:1008700025356C64003C756E757365642F756E6B01
:100880006E6F776E3E0020284125326429202000BB
:10089000253364200050494E3A20004F757470751E
:1008A00074203D2000496E70757420203D2000703A
:1008B000726F7465637465642000446F6E652E0A00
:1008C0000050756C73696E6720202000556E746F40
:1008D00075636865642000534552564F206E6F74EF
:1008E000207365742075702E0A00576174636869FF
:1008F0006E672070696E730A0064697300656E64C8
:1009000073746F70206D6F6E69746F722000204970
:100910006E76616C696420657874727564657220A6
:1009200000446966663A200046726F6D5374703AEF
:1009300000537465707065723A005261773A2020F6
:100940002020000A4C6F676963616C3A00436F7541
:100950006E7420453A004361703A0047322F4733A6
:100960002062616420706172616D65746572730AE2
:1009700000507265737375726520736574746C656D
:100980006420746F6F206C6F772C206D75737420EA
:1009900062652067726561746572207468616E209B
:1009A00000526573656E643A200023646566696E63
:1009B000652044454641554C545F004B6420004B34
:1009C0006920004B702000504944204175746F74B9
:1009D000756E652066696E6973686564212050755F
:1009E0007420746865206C617374204B702C204BEC
:1009F0006920616E64204B6420636F6E7374616E56
:100A000074732066726F6D2062656C6F7720696EFB
:100A1000746F20436F6E66696775726174696F6E7B
:100A20002E680A00504944204175746F74756E65D4
:100A3000206661696C6564212074696D656F7574E9
:100A40000A00504944204175746F74756E652066C4
:100A500061696C6564212054656D7065726174759F
:100A6000726520746F6F20686967680A00204B64A4
:100A70003A2000204B693A2000204B703A20000AAF
:100A800020436C617373696320504944200A000A53
:100A9000204E6F206F76657273686F6F740A002046
:100AA00054753A2000204B753A2000206D61783A49
:100AB0002000206D696E3A200020643A20002062F8
:100AC0006961733A2000504944204175746F747510
:100AD0006E652073746172740A0050494420417538
:100AE000746F74756E65206661696C65642120425F
:100AF0006164206578747275646572206E756D62CC
:100B000065720A0048617264636F646564204465BD
:100B10006661756C742053657474696E6773204CDC
:100B20006F616465640A003B200020490020204D6D
:100B300033303420500020204D33303120500050CD
:100B400049442073657474696E67733A0020204DC0
:100B5000323036205800486F6D65206F66667365C9
:100B6000743A00204A0020204D32303520420041A6
:100B70006476616E6365643A20423C6D696E5F73B2
:100B800065676D656E745F74696D655F75733E2032
:100B9000533C6D696E5F66656564726174653E2085
:100BA000543C6D696E5F74726176656C5F666565F5
:100BB00064726174653E204A3C6A756E635F646569
:100BC000763E0020204D3230342050004163636572
:100BD0006C65726174696F6E2028756E6974732F0D
:100BE0007332293A20503C7072696E745F6163639E
:100BF000656C3E20523C726574726163745F616320
:100C000063656C3E20543C74726176656C5F616311
:100C100063656C3E0020204D3230312058004D611C
:100C200078696D756D20416363656C657261746987
:100C30006F6E2028756E6974732F7332293A002005
:100C4000204D3230332058004D6178696D756D202C
:100C50006665656472617465732028756E69747366
:100C60002F73293A00537465707320706572207574
:100C70006E69743A0020204D3230302044300A0032
:100C800020204D3230302044002044697361626C72
:100C900065640A0046696C616D656E7420736574E5
:100CA00074696E67733A0020286D6D290020204713
:100CB0003231202020203B20556E69747320696EEC
:100CC000206D6D006F70656E005452494747455264
:100CD0004544007A5F6D617800795F6D696E0078D8
:100CE0005F6D6178005265706F7274696E67206520
:100CF0006E6473746F70207374617475730A005737
:100D000061726E696E673A20486F6D696E67204246
:100D1000756D702044697669736F72203C20310ACA
:100D20000020436F756E7420583A00626564002C91
:100D30002073797374656D2073746F7070656421AE
:100D4000204865617465725F49443A2000507269B9
:100D50006E7465722068616C7465642E206B696CBA
:100D60006C28292063616C6C6564210A00457272ED
:100D70003A204D415854454D50004D415854454D31
:100D80005020747269676765726564004572723AD3
:100D9000204D494E54454D50004D494E54454D50FF
:100DA00020747269676765726564000A0A00202012
:100DB0005A5F4D41583A002020595F4D494E3A0044
:100DC0002020585F4D41583A00202F002042403AE1
:100DD0000020403A002020506C616E6E65724275B2
:100DE0006666657242797465733A200020467265C2
:100DF00065204D656D6F72793A2000436F6D7069A3
:100E00006C65643A204A756E2020322032303235CB
:100E10000A00204C61737420557064617465643AF3
:100E200020323032302D30332D3234207C20417549
:100E300074686F723A20286E6F6E652C2064656648
:100E400061756C7420636F6E666967290A00322EC3
:100E5000302E352E320A004D61726C696E002053BF
:100E60006F6674776172652052657365740A00203D
:100E70005761746368646F672052657365740A0014
:100E80002042726F776E206F75742052657365749F
:100E90000A002045787465726E616C205265736536
:100EA000740A00506F77657255700A0046616E20B3
:100EB00053746174653A2000250A0048756D6964B1
:100EC0006974793A2000656E6473746F707320687A
:100ED00069743A20006F6B0048756D6964697479B4
:100EE000207468726573686F6C643A200048756D91
:100EF00069646974792073656E736F7220697320F9
:100F000064697361626C6564210A0048756D696487
:100F10006974792073656E736F7220697320656ED2
:100F200061626C6564210A0043617365206C6967C6
:100F300068743A206F6E0A0043617365206C6967BC
:100F400068743A206F66660A00454550524F4D203E
:100F500064697361626C65640A00546F6F20666136
:100F6000722066726F6D207265666572656E63656C
:100F700020706F696E740A0020646174613A002009
:100F800062797465733A003A2066726F6D3A00694F
:100F900032632D7265706C7900426164206932633E
:100FA00020726571756573740A004261642049326C
:100FB0004320616464726573732028382D313237A1
:100FC000290A0020643A0020693A0020703A00495A
:100FD0006E76616C69642065787472756465720AF6
:100FE0000020466C6F773A200046523A0020204D90
:100FF00061783A200020204D696E3A2000536F66D8
:101000007420656E6473746F70733A20003F4A20D9
:101010006F7574206F662072616E67652028302EB0
:10102000303120746F20302E33290A0020540020E4
:101030005200416363656C65726174696F6E3A203A
:1010400050002F2F20004348414D4245525F5445E8
:101050004D5045524154555245004D4F54494F4E05
:101060005F4D4F44455300544845524D414C5F50ED
:10107000524F54454354494F4E004155544F5245E9
:10108000504F52545F53445F535441545553005092
:10109000524F4D50545F535550504F525400454D90
:1010A000455247454E43595F5041525345520043C4
:1010B0004153455F4C494748545F42524947485461
:1010C0004E45535300544F47474C455F4C494748A2
:1010D000545300534F4654574152455F504F574564
:1010E00052004255494C445F50455243454E5400CE
:1010F0004C4556454C494E475F44415441005A5F68
:1011000050524F4245004155544F4C4556454C00B6
:101110005052494E545F4A4F420050524F47524539
:101120005353004155544F5245504F52545F54450C
:101130004D5000564F4C554D45545249430045457E
:1011400050524F4D0042494E4152595F46494C451D
:101150005F5452414E534645520053455249414C0B
:101160005F584F4E5F584F4646004649524D5741D3
:1011700052455F4E414D453A4D61726C696E203269
:101180002E302E352E32202847697448756229206A
:10119000534F555243455F434F44455F55524C3A78
:1011A00068747470733A2F2F6769746875622E6360
:1011B0006F6D2F4D61726C696E4669726D776172E9
:1011C000652F4D61726C696E2050524F544F434FE2
:1011D0004C5F56455253494F4E3A312E30204D41C7
:1011E0004348494E455F545950453A334420507264
:1011F000696E7465722045585452554445525F4398
:101200004F554E543A3120555549443A636564650B
:10121000326132662D343161322D343734382D3914
:101220006231322D63353563363266333637666662
:101230000A0020573A004D3131332053006F666663
:101240000044454255473A0050726F7465637465B7
:10125000642050696E0A00496E76616C69642050A2
:10126000696E204D6F64650A0025697920256964DF
:10127000202569682025696D2025697300507269F1
:101280006E742074696D653A200048323A00543219
:101290003A004672657175656E63792073686F7583
:1012A0006C6420626520657175616C206F72206CC2
:1012B000657373207468616E3A00506C6561736584
:1012C00020496E736572742074686520667265715A
:1012D00075656E63792077616E7465640A000950E4
:1012E000723A200050733A2000506C65617365209B
:1012F000496E7365727420746865207072657373CB
:101300007572652077616E7465640A0020483A0042
:10131000543A00466F7263655B4E5D3A00507265E9
:1013200073737572655B7073695D3A0052617744DF
:101330006174613A004D6173735B67725D3A0020BE
:10134000746F6F206C6F6E67206578747275736947
:101350006F6E2070726576656E7465640A00486F02
:101360006D6520257325732573204669727374009B
:10137000220A00556E6B6E6F776E20636F6D6D6124
:101380006E643A202200205A3A0020593A00204543
:1013900000205A00205900204D3932205800700199
:1013A0002C0190012701B0012201C0011D01F001B3
:1013B00018011002130130020E01600209019002AF
:1013C0000401C002FF000003FA004003F50080039F
:1013D000F000D003EB002004E6007004E100E0041C
:1013E000DC004005D700C005D2004006CD00D00685
:1013F000C8008007C3003008BE00F008B900C0096B
:10140000B400B00AAF00B00BAA00D00CA500000ECB
:10141000A000500F9B00C0109600501291000014C5
:101420008C00C0158700B0178200B0197D00D01B5A
:101430007800001E730040206E0090226900F024A6
:10144000640040275F0090295A00E02B5500102EC1
:10145000500020304B0010324600E0334100903500
:101460003C001037370070383200A0392D00B03AF8
:101470002800A03B2300603C1E00103D1900903D59
:101480001400103E0F00703E0A00C03E0500003FF1
:101490000000403FFBFF803FF6FFC03FF1FF5406D6
:1014A000102F50114F2C0B0C0A3008350717441819
:1014B000FF431709000147004800000088008A0028
:1014C0008C00B300B400000098009A009C00A800B3
:1014D000AA00AC0028012A012C01440045006E003E
:1014E000800081006F00B000B1007000900091009A
:1014F0007100A000A1007200200121017300E60527
:101500000001E1050101D4053201C7053301BB0526
:101510003401B0053501A6050501970529018C05A3
:10152000280181052A0176052C016B0535015D0531
:1015300007015105080147052C013C0522012E0534
:101540001E01220524011A0509010D051801FE04DA
:101550001701F6040D01E7044201D8053201CB055D
:101560003301D9041801CC041701BF040901BF05D8
:101570003401BA043501AF040B01A4040601990437
:1015800005018E040401EF0435018404060177048B
:1015900010016D042F016204540157042F014D0402
:1015A000110140044F0136042C012B04500120048A
:1015B0002C0116040C0109040A01FF033001F40395
:1015C0000B01E90330010000024300004843000022
:1015D0009643000000000000000000000000000032
:1015E0009643000096430000A0400000A040000089
:1015F000C8420000C8420000C8430000C844B80BFD
:101600000000B80B00002C01000010270000ABAA5E
:10161000A642ABAAA642555585410202020000A08F
:10162000400000A0400000803F24F4D43050C38E1E
:1016300020C2A24017828B7011127A910D816CD951
:101640000AA861E108C7586607615143061E4B5D51
:1016500005C145A7041A411104093D9803713931A8
:10166000034036DB0265339102D4305402802E1DD4
:1016700002632CEE01752AC501B028A00110278154
:10168000018F2564012B244B01E0223401AC211F82
:10169000018D200D01801FFC00841EED00971DDFD1
:1016A00000B81CD200E61BC600201BBC00641AB2A6
:1016B00000B219A8000A19A0006A189900D1179160
:1016C0000040178B00B516840031167E00B31579E3
:1016D000003A157300C7146F0058146A00EE1366C1
:1016E000008813630025135E00C7125B006C12575D
:1016F0000015125400C111510070114F0021114BFF
:1017000000D61049008D10470046104400021042D8
:1017100000C00F4000800F3E00420F3C00060F3B10
:1017200000CB0E3800930E37005C0E3500270E34C8
:1017300000F30D3200C10D3100900D3000600D2E10
:1017400000320D2D00050D2C00D90C2B00AE0C29FC
:1017500000850C29005C0C2700350C27000E0C2698
:1017600000E80B2400C40B2400A00B23007D0B23F6
:10177000005A0B2100390B2100180B2000F80A1F1A
:1017800000D90A1E00BB0A1E009D0A1D00800A1D0A
:1017900000630A1C00470A1B002C0A1B00110A1ACE
:1017A00000F7091A00DD091900C4091900AB09196D
:1017B00000920917007B091800630917004C0916ED
:1017C0000036091600200916000A091500F508154B
:1017D00000E0081400CC081400B8081400A4081491
:1017E00000900813007D0812006B081300580812BF
:1017F00000460812003408110023081100120811D5
:101800000001081100F0071000E0071000D00710D9
:1018100000C0071000B0070F00A107100091070ECD
:101820000083070F0074070F0065070E0057070EAF
:101830000049070E003B070D002E070E0020070D84
:101840000013070D0006070D00F9060C00ED060D4C
:1018500000E0060C00D4060C00C8060C00BC060C08
:1018600000B0060C00A4060B0099060C008D060BB8
:101870000082060B0077060B006C060B0061060A5F
:101880000057060B004C060A0042060A0038060AFA
:10189000002E060A0024060A001A060A001006098D
:1018A0000007060A00FD050900F4050900EB05091B
:1018B00000E2050900D9050900D0050900C705099E
:1018C00000BE050900B5050800AD050800A505091D
:1018D000009C050800940508008C05080084050894
:1018E000007C050800740508006C05070065050804
:1018F000005D050700560508004E0507004705076F
:10190000004005080038050700310507002A0507D3
:1019100000230507001C050600160507000F050734
:10192000000805060002050700FB040600F5040791
:1019300000EE040600E8040600E2040700DB0406EB
:1019400000D5040600CF040600C9040600C304063F
:1019500000BD040600B7040600B1040500AC04068F
:1019600000A6040600A00405009B040600950405DB
:1019700000900406008A0405008504050080040622
:10198000007A04050075040500700405006B040569
:101990000066040500610405005C040500570405A9
:1019A00000520405004D04050048040500430405E9
:1019B000003E0404003A0405003504050030040428
:1019C000002C04050027040400230405001E040461
:1019D000001A04040016040500110404000D040498
:1019E00000090405000404040000040400FC0304CE
:1019F00000F8030400F4030400F0030400EC030403
:101A000000E8030400E4030400E0030400DC030432
:101A100000D8030400D4030400D0030400CC030462
:101A200000C8030300C503030024F404D9201BC429
:101A30000C5C0E9804C4095F0265077101F405F996
:101A400000FB04B30048048700C103690058035534
:101A50000003034500BE023A008402310053022A0B
:101A6000002902250004022000E4011C00C801191D
:101A700000AF0117009801140084011300710110D8
:101A8000006101100051010E0043010D0036010BF1
:101A9000002B010B0020010B00150109000C0109AE
:101AA0000003010800FB000800F3000800EB00073A
:101AB00000E4000600DE000600D8000600D20006A2
:101AC00000CC000500C7000500C2000500BD0004F1
:101AD00000B9000400B5000400B1000400AD00042A
:101AE00000A9000400A5000300A20003009F000459
:101AF000009B000300980003009500020093000380
:101B000000900003008D0002008B0003008800029B
:101B1000008600020084000300810002007F0002B2
:101B2000007D0002007B00020079000200770001C6
:101B300000760002007400020072000100710002D1
:101B4000006F0002006D0001006C0002006A0001DD
:101B500000690002006700010066000100650001E5
:101B600000640002006200010061000100600001E9
:101B7000005F0002005D0001005C0001005B0001ED
:101B8000005A0001005900010058000100570001EF
:101B900000560001005500010054000100530000F0
:101BA00000530001005200010051000100500001EB
:101BB000004F0001004E0000004E0001004D0001EA
:101BC000004C0001004B0000004B0001004A0001E6
:101BD00000490001004800000048000100470001E2
:101BE00000460000004600010045000000450001DD
:101BF00000440001004300000043000100420000D7
:101C000000420001004100000041000100400001CD
:101C1000003F0000003F0001003E0000003E0001C8
:101C2000003D0000003D0001003C0000003C0000C1
:101C3000003C0001003B0000003B0001003A0000B6
:101C4000003A0001003900000039000100380000AE
:101C500000380000003800010037000000370001A4
:101C6000003600000036000000360001003500009C
:101C70000035000000350001003400000034000091
:101C80000034000100330000003300000033000185
:101C9000003200000032000000320001003100007C
:101CA0000031000000310001003000000030000071
:101CB00000300001002F0000002F0000002F000066
:101CC000002F0001002E0000002E0000002E000159
:101CD000002D0000002D0000002D0000002D00014F
:101CE000002C0000002C0000002C0000002C000143
:101CF000002B0000002B0000002B0000002B000137
:101D0000002A0000002A0000002A0000002A00012A
:101D1000002900000029000000290000002900001F
:101D20000029000100280000002800000028000011
:101D30000028000000280001002700000027000004
:101D400000270000002700000027000100260000F7
:101D500000260000002600000026000000260001EA
:101D600000250000002500000025000000250000DF
:101D700000250000002500010024000000240000D0
:101D800000240000002400000024000100230000C3
:101D900000230000002300000023000000230000B7
:101DA00000230000002300010022000000220000A8
:101DB000002200000022000000220000002200019A
:101DC000002100000021000000210000002100008F
:101DD000002100000021000000210001002000007F
:101DE0000020000000200000002000000020000073
:101DF000002000000020000000200001001F000063
:101E0000001F0000001F0000001F0000001F000056
:101E1000001F0000001F0001001E0000001E000047
:101E2000001E0000001E000000043700001E2900F4
:101E300000511B00005810000010090000CC0400E5
:101E40000078020000410100001000AA03F0013AEE
:101E5000019002220130031001D00302017004F747
:101E6000001005ED00B005E5005006DD00F006D7D6
:101E7000009007D1003008CC00D008C7007009C31B
:101E800000100ABE00B00ABB00500BB700F00BB345
:101E900000900CB000D00DAA00100FA5005010A0AB
:101EA0000090119B00D0129600B014900090168BF9
:101EB0000070188500501A8000301C7B00B01E7521
:101EC0000030216F00B02369003026640010285FC5
:101ED00000902A5A00702C5500F02E4F00703148A7
:101EE00000B0324500F0334100703639001037370A
:101EF000005038330090392D00D03A2700B03C1CF8
:101F000000503D1700F03D1100903E0900D03FE524
:101F1000FF00002100240027002A002D003000339C
:101F20000001010000040107010A01000020002354
:101F300000260029002C002F0032000001000003C1
:101F4000010601090100000A0B02090C0D0E080729
:101F50000304010000000000000000000000000079
:101F60000000000000000000000000000000000071
:101F7000001211100000000000000000000000002E
:101F8000000000000000000000000001FF01000050
:101F9000024300000000000096430C0607060006FE
:101FA000F905EB0500002200250028002B002E007B
:101FB0003100340002010000050108010B01050594
:101FC0000505070508080808020202020A0A0808AF
:101FD00004040404010101010101010103030303DD
:101FE00003030303040707070C0C0C0C0C0C0C0C6C
:101FF0000202020206060606060606060B0B0B0B7D
:102000000B0B0B0B010210202008081020401020A1
:1020100040800201020108040201010204081020AC
:1020200040808040201008040201800402018040AA
:102030002010080402010804020101020408102013
:1020400040800102040810204080A27918801124E9
:102050001FBECFEFD1E2DEBFCDBF00E00CBF13E06B
:10206000A0E0B2E0E4EEFEE101E00BBF02C00790A9
:102070000D92A432B107D9F72DE0A4E2B3E001C07C
:102080001D92AA39B207E1F710E1C6E2D0E100E003
:1020900006C021970109802FFE010E94288CC532BD
:1020A000D10780E00807A9F70E94EF7A0C94608FAF
:1020B0000C94000008950895CF92DF92EF92FF9262
:1020C0001F93CF93DF93EC018E818C3009F44DC0C8
:1020D00038F48B30E1F060E070E080EC9FE73DC0C9
:1020E00085518230C0F71A81612F70E0762F662704
:1020F00066277F778B81682B90E080E00E947C854B
:102100002DEC3CEC4CEC5DE30E94DD8548C06A811F
:1021100070E090E080E00E947C856B017C01CB81C7
:10212000C7FF0AC0AC019B0160E070E080E89FEB54
:102130000E94308C6B017C01CF706C2F70E090E0BE
:1021400080E00E947E852DEC3CEC4CEC5DE30E942F
:10215000DD85A70196010E94318CDF91CF911F91FF
:10216000FF90EF90DF90CF9008951A81612F70E07B
:1021700090E080E00E947C856B017C016B816F7038
:1021800070E090E080E00E947E852DEC3CEC4CEC11
:102190005DE30E94DD85A70196010E94318C17FF47
:1021A000DCCF9058DACF8091F80C9091F90C891B14
:1021B000990B08958150823108F05AC0E82FF0E061
:1021C0008827EA51FF4E8F4F0C94288C06110A1174
:1021D000F810FE10021138110D11131117111D11F5
:1021E000211125112B112F113811331139113D11E6
:1021F000809180008F778093800008958091800087
:102200008F7DF9CF80918000877FF5CF84B58F7760
:1022100084BD089584B58F7DFBCF8091B0008F770A
:102220008093B00008958091B0008F7DF9CF8091A8
:1022300090008F77809390000895809190008F7D1B
:10224000F9CF80919000877FF5CF8091A0008F77A4
:102250008093A00008958091A0008F7DF9CF809198
:10226000A000877FF5CF809120018F778093200198
:102270000895809120018F7DF9CF80912001877F83
:10228000F5CFCF93DF93282F30E0F901EB5BF04ED1
:102290008491F901EC5FFF4DD491F901E254F04EC5
:1022A000C491CC23A1F081110E94DA10EC2FF0E050
:1022B000EE0FFF1FE55DF04EA591B491EC91ED237B
:1022C00081E090E009F480E0DF91CF91089580E013
:1022D00090E0FACF1F93CF93DF93282F30E0F901DE
:1022E000EB5BF04E8491F901EC5FFF4DD491F90165
:1022F000E254F04EC491CC23A9F0162F81110E9414
:10230000DA10EC2FF0E0EE0FFF1FEC55F04EA59128
:10231000B4918FB7F894EC91111108C0D095DE23D9
:10232000DC938FBFDF91CF911F910895DE2BF8CF03
:10233000CF93DF9390E0FC01EC5FFF4D249182543A
:10234000904EFC0184918823C9F090E0880F991F7A
:10235000FC01EF5EF04EA591B491FC01EC55F04EFE
:10236000C591D49161110DC09FB7F8948C912095BF
:1023700082238C938881282328839FBFDF91CF916C
:102380000895623051F49FB7F8943C91822F809564
:1023900083238C93E8812E2BEFCF8FB7F894EC91A9
:1023A0002E2B2C938FBFEACF1F93CF93DF93182F41
:1023B000EB0161E00E949811209739F460E0812FD1
:1023C000DF91CF911F910C946A11CF3FD10511F489
:1023D00061E0F5CFE12FF0E0EB5BF04EE491E150EE
:1023E000E23108F0B3C0F0E08827E650FE4E8F4F90
:1023F0000C94288C0C121412191223122D12A612EE
:1024000037123F12471251125B12651274127E127C
:10241000A612881292129C1284B5806884BDC7BD32
:10242000DF91CF911F91089584B5806284BDC8BDAE
:10243000F7CF80918000806880938000D0938900DE
:10244000C0938800EDCF80918000806280938000EF
:10245000D0938B00C0938A00E3CF80918000886086
:1024600080938000D0938D00C0938C00D9CF809151
:10247000B00080688093B000C093B300D1CF80914A
:10248000B00080628093B000C093B400C9CF809147
:102490009000806880939000D0939900C09398003A
:1024A000BFCF80919000806280939000D0939B007A
:1024B000C0939A00B5CF809190008860809390007F
:1024C000D0939D00C0939C00ABCF8091A00080680A
:1024D0008093A0008091A0008F7B8093A000D09378
:1024E000A900C093A8009CCF8091A0008062809337
:1024F000A000D093AB00C093AA0092CF8091A0001F
:1025000088608093A000D093AD00C093AC0088CFCA
:1025100080912001806880932001D0932901C0938D
:1025200028017ECF80912001806280932001D0938A
:102530002B01C0932A0174CF809120018860809381
:102540002001D0932D01C0932C016ACFC038D10552
:102550000CF03ECF33CFCF93DF93C6E0DDE01A829D
:1025600060E088810E946A1170E060E08881DF91FC
:10257000CF910C94D411863308F0865320917B00C0
:10258000982F9870277F922B90937B0087708064A0
:1025900080937C0080917A00806480937A0080919F
:1025A0007A0086FDFCCF80917800909179000895A3
:1025B0008230910538F0880F991F880F991F059771
:1025C0000197F1F708953FB7F8948091C90690916B
:1025D000CA06A091CB06B091CC0626B5A89B05C033
:1025E0002F3F19F00196A11DB11D3FBFBA2FA92F92
:1025F000982F8827BC01CD01620F711D811D911D8F
:1026000042E0660F771F881F991F4A95D1F70895FA
:102610008F929F92AF92BF92CF92DF92EF92FF92F2
:102620006B017C010E94E3124B015C01C114D104D7
:10263000E104F104B9F00E94E312681979098A09EA
:102640009B09683E73408105910580F321E0C21A21
:10265000D108E108F10888EE880E83E0981EA11CDD
:10266000B11CE4CFFF90EF90DF90CF90BF90AF9080
:102670009F908F9008952FB7F8946091C506709140
:10268000C6068091C7069091C8062FBF0895CF93C4
:10269000DF93C6E0DDE081E08A8361E088810E940B
:1026A0006A116FEF70E088810E94D4110E943B1381
:1026B000AB01BC018F819885092E000CAA0BBB0BC6
:1026C000840F951FA61FB71F8B839C83AD83BE838A
:1026D000DF91CF910895CF92DF92EF92FF92CF9347
:1026E000DF93DC011796CC911797D0E06111DC2FB6
:1026F00018962C91189730E0220F331F255D304E2D
:1027000050E040E0F90185919491FC01F080BA011C
:1027100090E080E0EF2DEC23ED1310C04F5F5F4F92
:102720001D96CD90DD90ED90FC9050976C157D0539
:102730008E059F0538F36FEF7FEFCB01DF91CF91CF
:10274000FF90EF90DF90CF9008958F929F92AF927D
:10275000BF92CF92DF92EF92FF920F931F93CF938E
:10276000DF93CDB7DEB7C054D1400FB6F894DEBFCB
:102770000FBECDBF8C01F62E0E943B13F11029C075
:10278000F801C184D284E384F4849B01AC012C1948
:102790003D094E095F0969017A0130EDC31637E042
:1027A000D306E104F104A8F48189C05CDE4F0FB6C2
:1027B000F894DEBF0FBECDBFDF91CF911F910F9177
:1027C000FF90EF90DF90CF90BF90AF909F908F9051
:1027D0000895F80161877287838794871482138232
:1027E00012821182108262E085810E94981161E05C
:1027F00070E080E090E00E94081361E0F8018581BC
:102800000E94981160E0F80185810E946A11F80128
:10281000868185518230E8F48BE291E10197F1F7EE
:1028200062E0F80185810E949811F801828990E0A8
:102830000E94D812F89460E0C8010E946B136F3FA9
:102840007F4F8F4F9F4F61F4F801118A789480E099
:10285000ACCF64E170E080E090E00E940813E0CF2C
:1028600061E0C8010E946B136F3F7F4F8F4F9F4FF6
:1028700059F39E012F5F3F4F79015E013FEBA31A91
:102880003EEFB30A670160E0C8010E946B13F601D6
:10289000608371838283938361E0C8010E946B131C
:1028A000F6016483758386839783F8E0CF0ED11C8D
:1028B000CA14DB0441F7789430E020E0F70180800F
:1028C0009180A280B3804481558166817781FFEF3A
:1028D0008F169F06AF06BF0631F04F3F8FEF5807A8
:1028E0006807780719F4F801118AB1CFF90183E07C
:1028F000F595E7958A95E1F7E00FF11F8081880F44
:1029000084169506A606B706F0F080832F5F3F4F2A
:10291000F8E0EF0EF11C2832310581F6F801448110
:1029200020818181280F3327331F8281280F311D99
:102930008381820F932F911D99274817190699F6C5
:1029400081E0818B32CF8160E0CFCF92DF92EF9236
:10295000FF92CF93DF93EC0161E00E94A5138823DF
:1029600041F08E818B3028F08D3040F085518230DF
:1029700030F160E070E080EC9FE71AC0698170E0A0
:1029800090E080E00E947E852DEC3CEC4CEC5DE319
:102990000E94DD856B017C01688170E090E080E041
:1029A0000E947E859B01AC01C701B6010E94318C5B
:1029B000DF91CF91FF90EF90DF90CF9008956881E5
:1029C000798176276727762790E080E00E947C85D2
:1029D0002DEC3CEC4CEC5DE30E94DD85E9CF2091D1
:1029E0001105260F3327331F21323105ECF42091D6
:1029F000B80CFC0190E080E0243069F082E008959A
:102A0000A09111052191AC014F505B4FA40FB52F40
:102A1000B11D2C930196861798F380911105680FCC
:102A20006093110580E0089581E008951092B80C3C
:102A300081E08093970C1092920C61E084E10E94F7
:102A40006A1161E085E10E946A11E9EBF0E08081A2
:102A50008E7F808380818D7F808388E48093B8001F
:102A600085E48093BC000895CF93DF9391E0909329
:102A7000F0048823B9F0C091B800D091BA008091D9
:102A8000BC008A7B8093BC0060E084E10E946A11F4
:102A900060E085E10E946A110E941615D093BA0089
:102AA000C093B800DF91CF910895CF92DF92EF925B
:102AB000FF920F931F93CF93DF93D82FC62F6132CE
:102AC00008F098C00E94E3126B017C018091B80C61
:102AD00081116BC081E08093B80C8093970C9FEFBD
:102AE0009093960C1092950C9C0F9093940C80935D
:102AF000930C8091930CDD0FD82BD093930C809185
:102B0000920C813009F078C01092920C0E94E3126E
:102B10006B017C018091930C8093BB008091BA0C77
:102B20009091BB0CA091BC0CB091BD0C892B8A2B51
:102B30008B2BA1F00E94E3120091BA0C1091BB0CF8
:102B40002091BC0C3091BD0C6C197D098E099F0938
:102B5000061717072807390708F448C08091BC00FA
:102B600083FDD8CF85EC8093BC000E94E3126B01FB
:102B70007C018091B80C813009F440C08091950CA3
:102B80008C1710F4C091950CE2E7FCE0A8E9BCE0DA
:102B900080E08C1355C08C2FDF91CF911F910F9146
:102BA000FF90EF90DF90CF9008958091BA0C9091B4
:102BB000BB0CA091BC0CB091BD0C892B8A2B8B2B2C
:102BC00009F484CF0E94E3120091BA0C1091BB0C5F
:102BD0002091BC0C3091BD0C6C197D098E099F09A8
:102BE000061717072807390708F070CF8091B90C2E
:102BF0000E943415C0E0CFCF85EEB5CF8091BA0CDE
:102C00009091BB0CA091BC0CB091BD0C892B8A2B70
:102C10008B2B09F4AECF0E94E3120091BA0C1091F5
:102C2000BB0C2091BC0C3091BD0C6C197D098E0938
:102C30009F09061717072807390708F09ACFD6CF3C
:102C400091919D938F5FA5CF0895E091F90C8091AC
:102C5000F80CE81730F4F0E0E856F34F808190E08C
:102C600008958FEF9FEF08959091F90C8091F80CE3
:102C70002FEF3FEF981748F4E92FF0E0E856F34FB5
:102C8000208130E09F5F9093F90CC9010895CF92A5
:102C9000DF92EF92FF920F931F93CF93DF937C010C
:102CA000CB018A012091F106222389F0EB016B010F
:102CB000C40ED51ECC15DD0569F06991D701ED91E3
:102CC000FC910190F081E02DC7011995F3CF642F9D
:102CD0000E94EF14C801DF91CF911F910F91FF90D7
:102CE000EF90DF90CF900895CF93DF931F92CDB7F1
:102CF000DEB769832091F1062223F9F02091F60CCA
:102D0000203258F021E030E0FC013383228390E050
:102D100080E00F90DF91CF9108958091F70CE82F1C
:102D2000F0E0E053F94F998190838F5F8093F70C27
:102D30008093F60C81E090E0ECCF61E0CE0101964B
:102D40000E94EF14F7CF90E080E008958091330760
:102D5000909134078635910554F481E020911C0749
:102D600030911D07263031051CF480E0089581E084
:102D7000089580913A0290913B020F971816190618
:102D800014F490E080E0909334078093330710921E
:102D90001D0710921C0710923507129810921E07FB
:102DA000119808958F929F92AF92BF92CF92DF9227
:102DB000EF92FF920F931F93CF93DF93B2E3A0E0C4
:102DC0006A2F70E0AB014B0F511D5595479541118E
:102DD00019C0EBE4FEE165917491072E000C880B9D
:102DE000990B0E947E85DF91CF911F910F91FF90EB
:102DF000EF90DF90CF90BF90AF909F908F9008950D
:102E0000B42FE0CFA41711F0B41303C0EFE0FFE13B
:102E1000E2CF9A0121503109220F331F220F331FB5
:102E2000F901E75BF14EE590F490F901E35BF14EB7
:102E3000C591D4918E159F051CF3A42FC817D907EF
:102E40000CF4BECFF901E55BF14E05911491F90147
:102E5000E15BF14EC590D490BC016E197F09072E3D
:102E6000000C880B990B0E947E854B015C01B6011A
:102E7000601B710B072E000C880B990B0E947E853E
:102E80009B01AC01C501B4010E94DD854B015C01D1
:102E9000BE016E197F09072E000C880B990B0E944A
:102EA0007E859B01AC01C501B4010E942B8D6B0195
:102EB0007C01B801110F880B990B0E947E859B0144
:102EC000AC01C701B6010E94318C8DCFBC012091AD
:102ED00095043091960440919504509196042417DE
:102EE000350731F481E02617370709F080E00895AF
:102EF0009A01F1CF0000000000008091360580FFAC
:102F00002EC0809102018870809300018FEF809322
:102F10004B0480913605869580FF29C0809102017F
:102F20008170809300018FEF80934C04809136056F
:102F30008695869580FF23C02E9A8FEF80934D044F
:102F40008091360586958695869580FF1BC0289AC8
:102F50008FEF80934E0400000000000008958091E0
:102F60000201809588708093000181E0D0CF80912C
:102F70000201809581708093000181E0D5CF2E9869
:102F800081E0DCCF289881E0E4CFAF92BF92CF926E
:102F9000DF92EF92FF920F931F93CF93DF93C4E2E0
:102FA000DCE00CE917E084E3A82E8CE0B82EC12CFD
:102FB000D12C7601C39469917991899199910E945C
:102FC0007C85288939894A895B890E94DD850E9430
:102FD000A48DF80161937193819391938F01C6162B
:102FE000D706E806F90610F46B017C01AC16BD06A5
:102FF00011F76FEF7FEFCB01A70196010E94A58B20
:103000002093AC073093AD074093AE075093AF07C2
:10301000DF91CF911F910F91FF90EF90DF90CF90B4
:10302000BF90AF900895CF92DF92EF92FF92809180
:103030000607882309F457C0C0900207D090030701
:10304000E0900407F090050720E030E0A901C701F7
:10305000B6010E947785882309F445C020E030E05E
:1030600040E05FE3C701B6010E94DD859B01AC0132
:103070000E94DD852BED3FE049E450E40E94DD85B0
:103080009B01AC0160E070E080E89FE30E942B8D23
:103090006B017C01C092F206D092F306E092F40636
:1030A000F092F5066091130270911402072E000C45
:1030B000880B990B0E947E852AE037ED43E25CE3A2
:1030C0000E94DD85A70196010E94DD85609356026E
:1030D000709357028093580290935902FF90EF909B
:1030E000DF90CF900895C12CD12C80E8E82E8FE39B
:1030F000F82ED0CF8091C10C9091C20C891B8F709B
:1031000019F490E080E008959091BE0C992351F05D
:10311000833030F48FEF890F19F08093BE0CF1CF1C
:103120001092BE0C8091C20C26E4829FC001112433
:103130008F53984FFC01208120FDE3CF2091C20CDA
:103140002F5F2F702093BF0C3091C20C2091C00CC8
:10315000321304C02091BF0C2093C00C08959091AD
:103160006F0081E091FD02C080E0089590916F00B2
:103170009D7F90936F000895EFE6F0E0808182607C
:1031800080830895CF93C82F0E94AF1894E0C99F01
:1031900090011124F901E856FB4F2C553B4FD90102
:1031A0004D915D916D917C914083518362837383D6
:1031B00091E090939704882319F0CF910C94BC1858
:1031C000CF910895CF92DF92EF92FF92CF93DF934A
:1031D000C82F0E94AF1894E0C99FE0011124FE019E
:1031E000EC55FB4FC080D180E280F38081110E94BA
:1031F000BC18CF54D84FC701B6010E947E852881E4
:1032000039814A815B810E94DD85DF91CF91FF90FA
:10321000EF90DF90CF900895CF92DF92EF92FF92E0
:10322000CF93DF93C82F0E94AF1894E0C99FE001AD
:103230001124FE01E856FB4FC080D180E280F3806C
:1032400081110E94BC18CF54D84FC701B6010E940B
:103250007E85288139814A815B810E94DD85DF91ED
:10326000CF91FF90EF90DF90CF900895CF93DF93B1
:1032700024E0829FC0011124EC01C458D84FFC0106
:10328000EA50F94F825B984FDC012D913D914D91B1
:103290005C9160817181828193810E94318C68830D
:1032A00079838A839B83DF91CF910895CF92DF92B8
:1032B000EF92FF921F93CF93DF9320911502222369
:1032C00009F48DC0EC011091790710FF2CC0C0905B
:1032D0001602D0901702E0901802F090190228818F
:1032E00039814A815B81C701B6010E94918E18160F
:1032F00024F4C882D982EA82FB82C0902202D09054
:103300002302E0902402F0902502288139814A812D
:103310005B81C701B6010E94778587FF04C0C88220
:10332000D982EA82FB8211FF2CC0C0901A02D09091
:103330001B02E0901C02F0901D022C813D814E8109
:103340005F81C701B6010E94918E181624F4CC82C9
:10335000DD82EE82FF82C0902602D0902702E090AC
:103360002802F09029022C813D814E815F81C701A6
:10337000B6010E94778587FF04C0CC82DD82EE8291
:10338000FF8212FF2CC0C0901E02D0901F02E0905E
:103390002002F0902102288539854A855B85C70186
:1033A000B6010E94918E181624F4C886D986EA8642
:1033B000FB86C0902A02D0902B02E0902C02F09065
:1033C0002D02288539854A855B85C701B6010E9493
:1033D000778587FF04C0C886D986EA86FB86DF9199
:1033E000CF911F91FF90EF90DF90CF900895CF92F3
:1033F000DF92EF92FF92CF93DF9381E00E94E21879
:103400006B017C0180E00E94E218CFE3D4E0688386
:1034100079838A839B83CC82DD82EE82FF8282E085
:103420000E94E218688779878A879B87DF91CF910E
:10343000FF90EF90DF90CF900895CF92DF92EF92C0
:10344000FF929091090180913E0492FD64C08061D9
:1034500080933E049091090180913E0495FD5DC0EA
:10346000826080933E049091090180913E0491FF17
:1034700056C0806480933E04C0908804C0FE10C093
:103480008091360580FD0CC080913E0484FF08C009
:103490008091C30680618093C30680E00E94C218B9
:1034A000D12CF12CE12CD701C601B695A7959795A3
:1034B000879580FF11C080913605869580FF0CC0EE
:1034C00080913E0481FF08C08091C3068260809392
:1034D000C30681E00E94C21882E0F694E794D79474
:1034E000C7948A95D1F7C0FE1CC080913605869599
:1034F000869580FD16C080913E0486FF12C08091A3
:10350000C30680648093C30682E0FF90EF90DF9053
:10351000CF900C94C2188F7E9BCF8D7FA2CF8F7BD4
:10352000A9CFFF90EF90DF90CF9008950F931F9356
:1035300080914607813019F50E943B1300913A04AF
:1035400010913B0420913C0430913D04601B710BB1
:10355000820B930B28EE33E040E050E00E94A58BF5
:103560006091360470913704809138049091390449
:10357000620F731F841F951F1F910F910895609113
:103580004207709143078091440790914507D6CF39
:103590001092460710923A0410923B0410923C0499
:1035A00010923D0410924207109243071092440774
:1035B0001092450710923604109237041092380486
:1035C000109239040895809146078130F1F08230DD
:1035D000C9F40E94961A609336047093370480935E
:1035E00038049093390481E0809346070E943B138E
:1035F00060933A0470933B0480933C0490933D04A1
:1036000081E008950E94C81AEECF80E0089580916D
:1036100046078150823070F4109246070E943B1397
:103620006093420770934307809344079093450744
:1036300081E0089580E00895282F909174078330E9
:1036400021F495FD0FC094FD0FC0892F90E0B0E0EC
:10365000A0E004C0B695A795979587952A95D2F7CF
:103660008170089581E0089580E00895082E000C8F
:10367000990BFC01E254F04EE491EE2391F0F0E05E
:10368000EE0FFF1FE55DF04EA591B4912C918C5F7C
:103690009F4DFC018491282381E090E021F480E09B
:1036A000089580E090E00895082E000C990BFC012D
:1036B000E254F04EE491F0E0EE0FFF1FEF5EF04EAB
:1036C000A591B4912C918C5F9F4DFC018491822334
:1036D00091E009F490E0892F08952FEB280F2A310B
:1036E00008F042C0E22FF0E0809147079091480730
:1036F000A0914907B0914A0704C0B695A795979540
:1037000087952A95D2F780FD02C081700895E6560C
:10371000FC4FE081EE2329F180917A0790917B079D
:10372000E80FF92FF11D808190ED980F9A3030F05D
:103730008E3251F4818180538A3098F4F09399034A
:10374000E093980381E008958D3211F08B3249F4B3
:10375000818190ED980F9A3088F38E3211F4828136
:10376000EACFF0E0E0E0EACF80E008950E946D1B30
:10377000882341F081E02091980330919903232B15
:1037800009F480E008959091CF0680911102992369
:1037900021F0811102C0A098089520911202209377
:1037A0009703992311F08823B1F38823A1F3A09AFA
:1037B00008958091020180958071809300010895A1
:1037C0008091020180958270809300018091620750
:1037D0008E7F80936207769A809162078D7F8093B7
:1037E00062072C9A809162078B7F809362070C940A
:1037F000D91BC82F89EE93E030E6019729F0232FDB
:103800002A950000E9F7F9CFF89489EE93E038EEB5
:10381000019729F0232F2A950000E9F7F9CF0E949C
:10382000B916CC2321F00E94E01BA895FECF0E9480
:10383000D91BFBCF9091C00095FFFCCF8093C600B1
:103840000895CF93C82FC15020F080E20E941A1C27
:10385000FACFCF910895CF93DF93EC01FE018491CD
:103860002196882319F00E941A1CF8CFDF91CF917E
:103870000895CF93C82FCB010E942B1C82E198E0C2
:103880000E942B1C84EC9CE0CC2311F089EC9CE082
:103890000E942B1C8AE0CF910C941A1C1F93CF938B
:1038A000DF9385EE9CE00E942B1CC9E0D1E088816B
:1038B00011E082FB882780F96FED7CE081270E9470
:1038C000391C888185FB882780F969ED7CE0812798
:1038D0000E94391C888163ED7CE086958170DF91C0
:1038E000CF911F910C94391CCF93DF93C82F88E59B
:1038F00098E00E942B1C0C2E000CDD0BFE01E25404
:10390000F04E8491805C0E941A1CFE01EC5FFF4D1A
:10391000E49180E3E13021F0E6958F5F8933D1F7C0
:10392000DF91CF910C941A1C0F931F93CF93DF93C9
:103930008B010E942B1CE8018991882319F00E94B9
:103940001A1CFACFDF91CF911F910F9108958DE846
:1039500097E00C942B1C87E897E00C942B1C0E949A
:10396000AB1C60917A0770917B0783E793E10E941B
:10397000941C80E793E10C942B1C0F931F93CF931F
:10398000811113C0C42F8B010E94AB1C87E29BE006
:103990000E942B1CC8010E942B1CCC2331F08AE012
:1039A000CF911F910F910C941A1CCF911F910F91E1
:1039B00008958091B4039091B5032FEF3FEF9817CE
:1039C00051F0E92FF0E0EC54FC4F228130E09F5F92
:1039D0009F779093B503C9010895CF93DF9362E079
:1039E0008091670D0E9455151092F90C8093F80C88
:1039F00064E070E080E090E00E9408138AEF9CE0B1
:103A00000E943416D82F80E0C82F8AEF9CE00E94D5
:103A10003416BE01682B792B7F73072E000C880BA0
:103A2000990B0E947E85DF91CF9108954F925F920E
:103A30006F927F92AF92BF92CF92DF92EF92FF92FE
:103A40000F931F93CF93DF93C5E0D0E0C12CD12C0F
:103A500076010E94ED1C9B01AC01C701B6010E94DA
:103A6000318C6B017C012197A1F720E030E040EA26
:103A700050E40E942B8D2B013C0100915F0D1091B1
:103A8000600D5801E801CC0FDD1FCC0FDD1FC95CB4
:103A9000D24FC12CD12C760181E0A81AB10824970D
:103AA0001A141B048CF4FE01349720813181428169
:103AB0005381288339834A835B83C701B6010E94FF
:103AC000318C6B017C01E8CFB801110F880B990B89
:103AD0000E947E859B01AC01C301B2010E942B8D27
:103AE0009B01AC012093370D3093380D4093390D75
:103AF00050933A0D4090630D5090640D6090650DA9
:103B00007090660DC701B6010E94318CA30192012D
:103B10000E94308C26EC3DEE41E352E40E94DD85AC
:103B20006B017C01A301920160E070E08AE796E4FA
:103B30000E94308C9B01AC01C701B6010E942B8D05
:103B4000DF91CF911F910F91FF90EF90DF90CF9079
:103B5000BF90AF907F906F905F904F900895CF93FC
:103B6000DF93C9E0D0E00E94161D2197E1F70E9483
:103B7000161D20E030E04DE952E40E942B8D2AEB27
:103B800039E041E153E40E94DD85DF91CF91089552
:103B90008F929F92AF92BF92CF92DF92EF92FF925D
:103BA0000F931F93CF93DF93B0E4A0E06A2F70E0F0
:103BB000AB014B0F511D55954795411119C0E0EAD6
:103BC000F3E165917491072E000C880B990B0E940C
:103BD0007E85DF91CF911F910F91FF90EF90DF9045
:103BE000CF90BF90AF909F908F900895B42FE0CF6B
:103BF0004A1711F0B41303C0ECE9F4E1E2CF9A01E3
:103C000021503109220F331F220F331FF901E256D1
:103C1000FC4EE590F490F901EE55FC4EC591D4911F
:103C20008E159F051CF3A42FC817D9070CF4BECF1F
:103C3000F901E056FC4E05911491F901EC55FC4E4A
:103C4000C590D490BC016E197F09072E000C880B1B
:103C5000990B0E947E854B015C01B601601B710BC4
:103C6000072E000C880B990B0E947E859B01AC01EE
:103C7000C501B4010E94DD854B015C01BE016E19D6
:103C80007F09072E000C880B990B0E947E859B01F3
:103C9000AC01C501B4010E942B8D6B017C01B80100
:103CA000110F880B990B0E947E859B01AC01C70107
:103CB000B6010E94318C8DCFCF93DF93CBE2D7E05A
:103CC0008A819B810E94C81D6C837D838E839F8324
:103CD000C4E1D7E08A819B810E94D2166C837D83E8
:103CE0008E839F83A8951092DF04DF91CF91089572
:103CF0002F923F924F925F926F927F928F929F92FC
:103D0000AF92BF92CF92DF92EF92FF920F931F93E9
:103D1000CF93DF9300D000D000D01F921F92CDB779
:103D2000DEB78091DE04811171C08091DF048111C2
:103D300019C02B960FB6F894DEBF0FBECDBFDF9132
:103D4000CF911F910F91FF90EF90DF90CF90BF9098
:103D5000AF909F908F907F906F905F904F903F902B
:103D60002F9008950E945C1E0E943B13C0902F0765
:103D7000D0903007E0903107F09032076091380220
:103D800070913902072E000C880B990B0E947E85DA
:103D90009B01AC01C701B6010E94918E181694F4E4
:103DA00060913A0270913B02072E000C880B990B30
:103DB0000E947E859B01AC01C701B6010E947785F8
:103DC00087FD2FC060E06093350740901807509042
:103DD000190760901A0770901B0720E030E040EA56
:103DE00050E4C301B2010E94918E87FD0BC020E018
:103DF00030E042E053E4C301B2010E947785181617
:103E00000CF00EC160E060931E0793CF0E94B916BC
:103E10000E94A71C8DE49DE00E942B1C81E00E9463
:103E2000F91B60913307709134076115710509F42E
:103E300001C2072E000C880B990B0E947E85A701FA
:103E400096010E94308C2B013C0120E030E040E2E2
:103E500051EC0E94778587FDEDC120E030E040E223
:103E600051E4C301B2010E94918E18160CF4FAC1FC
:103E70008091DD04811100C28090D5049090D60419
:103E8000A090D704B090D8048091D9049091DA041E
:103E9000A091DB04B091DC048D839E83AF83B8874F
:103EA000A70196016091C9047091CA048091CB0466
:103EB0009091CC040E94308C20913E0730913F07B6
:103EC00040914007509141070E94DD85A501940172
:103ED0000E94308C20ED3CEC4CE45DE30E94DD85DB
:103EE000A50194010E94318C4B015C018092D504A4
:103EF0009092D604A092D704B092D80480913A0749
:103F000090913B07A0913C07B0913D0789839A832C
:103F1000AB83BC832D813E814F815885C301B201A3
:103F20000E94318C162F7B878A87092F20E030E092
:103F3000A9010E94778587FDA9C129813A814B811A
:103F40005C8160E070E08FE793E40E942B8D6D83CD
:103F500079871C01212F3B854A85502F0E94778548
:103F600087FF05C01D8199859B872A86032D812F98
:103F70009B85AA85B02F8093D9049093DA04A093EF
:103F8000DB04B093DC042091360730913707409171
:103F9000380750913907C301B2010E94DD852B011A
:103FA0003C014092CD045092CE046092CF047092B6
:103FB000D004212F3B854A85502F69817A818B81DE
:103FC0009C810E94DD859B01AC012093D10430933C
:103FD000D2044093D3045093D404C301B2010E948D
:103FE000318CA50194010E94318C20E030E0A901C0
:103FF0000E94318C4B015C0120E030E0A9010E945D
:10400000778587FD1AC120E030E04FE753E4C50112
:10401000B4010E94918E18160CF019C16FE70EC101
:1040200060911C0770911D076115710509F416C197
:10403000072E000C880B990B0E947E85A30192012C
:104040000E94308C4B015C0120E030E040E251ECFA
:104050000E94778587FD02C120E030E040E251E414
:10406000C501B4010E94918E18160CF400C1809114
:10407000230790912407A0912507B09126078983F3
:104080009A83AB83BC8380910402811104C1209187
:10409000C5043091C6044091C7045091C804C09033
:1040A000C104D090C204E090C304F090C404C501E0
:1040B000B4010E94318C162F7B878A87092F20E05C
:1040C00030E0A9010E94778587FDEDC029813A8102
:1040D0004B815C8160E070E08FE793E40E942B8D60
:1040E000362E272E8D839987212F3B854A85502F89
:1040F0000E94778587FF05C0132D2B869D819A87A7
:104100000985812F9B85AA85B02F8093C504909344
:10411000C604A093C704B093C80420911F07309130
:1041200020074091210750912207C501B4010E9448
:10413000DD854B015C018092B9049092BA04A09293
:10414000BB04B092BC04212F3B854A85502F698166
:104150007A818B819C810E94DD8569837A838B8340
:104160009C836093BD047093BE048093BF049093BE
:10417000C004A30192016091B5047091B6048091CE
:10418000B7049091B8040E94308C20912707309199
:1041900028074091290750912A070E94DD85A70131
:1041A00096010E94308C20ED3CEC4CE45DE30E94D3
:1041B000DD85A70196010E94318C6B017C01C092C4
:1041C000C104D092C204E092C304F092C4044092AD
:1041D000B5045092B6046092B7047092B804298175
:1041E0003A814B815C81C501B4010E94318CA701E9
:1041F00096010E94318C20E030E0A9010E94318CB0
:104200006B017C0120E030E0A9010E94778587FDE9
:10421000F9CD20E030E04FE753E4C701B6010E943A
:10422000918E18163CF1C701B6010E949D8D7595BF
:104230006795E9CD81E08093DD0460E0C092C90418
:10424000D092CA04E092CB04F092CC04BCCDC5015C
:10425000B4010E949D8D75956795F0CF81E08093A4
:104260000402D0CD81E08093DD046FE7E7CF81E0E9
:10427000809304026FE7C7CD1092DD041D821E8279
:104280001F821886812C912C54010ACE10E01B86C7
:104290001A8600E06CCE10920402C12CD12C76015B
:1042A000A701960104CF10E01B861A8600E029CFF3
:1042B000CF92DF92EF92FF926B017C0183E3C816ED
:1042C000D104E104F10470F082E3C81AD108E108D6
:1042D000F10862E370E080E090E00E9408130E9421
:1042E000781EECCFC701B6010E940813FF90EF9033
:1042F000DF90CF900C94781E80915A07882331F07C
:1043000062E070E080E090E00C9458210895CF9234
:10431000DF92EF92FF920F931F93CF93DF93CDB76E
:10432000DEB7A0970FB6F894DEBF0FBECDBF611504
:1043300071058105910579F100E0C42ED12CF12C95
:10434000E12CA70196010E94A58B11E0100FE1E07E
:10435000F0E0EC0FFD1FE00FF11D07FDFA95608303
:10436000B901CA01012F611571058105910549F750
:10437000115010F1E1E0F0E0EC0FFD1FE10FF11D35
:1043800017FDFA95908187E39A3008F480E3890F4E
:104390000E941A1CEDCF80E3A0960FB6F894DEBF02
:1043A0000FBECDBFDF91CF911F910F91FF90EF9086
:1043B000DF90CF900C941A1CA0960FB6F894DEBF35
:1043C0000FBECDBFDF91CF911F910F91FF90EF9066
:1043D000DF90CF900895CF92DF92EF92FF926B0122
:1043E0007C01F7FE0BC08DE20E941A1CF094E09451
:1043F000D094C094C11CD11CE11CF11C4AE0C7013F
:10440000B601FF90EF90DF90CF900C9487210F932F
:104410001F93CF93C82F8B0180917307813099F43C
:104420000E94A71CC8010E942B1C8FE29DE00E94E5
:104430002B1CC1111FC060E070E0CB010E94EB217A
:104440008AE00E941A1C0E94B9168091B40481115E
:1044500016C081E08093B40480E8809373070E94C3
:10446000B9160E94A71C8DE49DE00E942B1C80E0E1
:104470000E94F91B8BE29DE00E942B1CE1CFCF91A3
:104480001F910F910895CF92DF92EF92FF92CF93F9
:10449000DF93EC01C880D980EA80FB8081E29DE057
:1044A0000E942B1CC701B6010E94EB21CC80DD804D
:1044B000EE80FF808AE893E10E942B1CC701B601C1
:1044C0000E94EB21C884D984EA84FB8486E893E1C6
:1044D0000E942B1CC701B6010E94EB218AE0DF91EC
:1044E000CF91FF90EF90DF90CF900C941A1CCF9358
:1044F000DF93EB010E942B1CBE01DD0F880B990B93
:10450000DF91CF910C94EB218F929F92AF92BF924B
:10451000CF92DF92EF92FF92CF936B017C01B42E8A
:1045200020E030E0A9010E94778587FF07C08DE277
:104530000E941A1CF7FAF094F7F8F094C0E060E0DB
:1045400070E080E09FE3CB1541F02DEC3CEC4CECAF
:104550005DE30E94DD85CF5FF6CF9B01AC01C70113
:10456000B6010E94318C6B017C010E94A48D4B012D
:104570005C014AE00E948721CC2391F1C501B4017E
:104580000E947C859B01AC01C701B6010E94308C62
:104590006B017C018EE20E941A1CC15008F120E0E0
:1045A00030E040E251E4C701B6010E94DD854B01D5
:1045B0005C010E949D8D6B01770FEE08FF08C7011B
:1045C000B6010E94EB21C701B6010E947E859B01C6
:1045D000AC01C501B4010E94308C6B017C01DDCFC0
:1045E000CF91FF90EF90DF90CF90BF90AF909F90D2
:1045F0008F900895CF92DF92EF92FF926A017B0134
:104600000E942B1C42E0C701B601FF90EF90DF90A3
:10461000CF900C9484228823A9F10E94AB1C409176
:10462000380C5091390C60913A0C70913B0C87E931
:1046300093E10E94FA2240913C0C50913D0C609114
:104640003E0C70913F0C84E993E10E94FA22409164
:10465000400C5091410C6091420C7091430C81E9E7
:1046600093E10E94FA224091440C5091450C6091D4
:10467000460C7091470C8EE893E10E94FA228AE082
:104680000C941A1C80E20E941A1CC9CF4F925F92B0
:104690006F927F928F929F92AF92BF92CF92DF9252
:1046A000EF92FF920F931F93CF93DF93C6E4D2E074
:1046B0004C845D846E847F840CE717E0F8012481CC
:1046C0003581468157816C817D818E819F810E94D9
:1046D000318C4B015C01F801208531854285538581
:1046E000688579858A859B850E94318C6B017C0168
:1046F000F8012081318142815381688179818A81E9
:104700009B810E94318CAB01BC0188E29DE00E943C
:10471000FA22B501A4018AE893E10E94FA22B701C6
:10472000A60186E893E10E94FA22B301A20182E584
:1047300099E0DF91CF911F910F91FF90EF90DF9063
:10474000CF90BF90AF909F908F907F906F905F9031
:104750004F900C94FA22CF93DF93CDB7DEB72C970E
:104760000FB6F894DEBF0FBECDBF0E9446230E9455
:10477000AF189CE0E4EAF4E0DE01119601900D929E
:104780009A95E1F781110E94BC18CE0101960E9412
:1047900043222C960FB6F894DEBF0FBECDBFDF913B
:1047A000CF910895EF92FF920F931F93CF937C01C7
:1047B0008B01C2E44F3F09F0C4E580E20E941A1C5D
:1047C0008C2F0E941A1C8AE30E941A1CF701608138
:1047D00071818281938142E00E948422F8014081AC
:1047E00051816281738189EC9DE00E94FA2262E02E
:1047F00070E080E090E0CF911F910F91FF90EF90DB
:104800000C940813EF92FF921F93CF93DF9300D085
:1048100000D01F921F92CDB7DEB7182F8BE2E82E83
:1048200087E0F82EF70160857185072E000C880B54
:10483000990B0E947E856D837E838F83988720E00D
:1048400030E0A901F70164817581868197810E941A
:10485000318C69837A838B839C834BEFBE016B5FC2
:104860007F4FCE0101960E94D22394E1E92E97E07A
:10487000F92EF70160857185072E000C880B990BC6
:104880000E947E856D837E838F839887F701848164
:104890009581A681B78189839A83AB83BC834FEFCF
:1048A000BE016B5F7F4FCE0101960E94D22387E14C
:1048B0001802F0011124E55DF84F628570E081ED8A
:1048C0009DE00E947722F701628570E08CEC9DE00C
:1048D0000E94772228960FB6F894DEBF0FBECDBF98
:1048E000DF91CF911F91FF90EF9008951F93CF9389
:1048F000DF93C82FD1E0D827811102C00E94AB1CE2
:104900008DEA9CE00E942B1C87EA9CE00E942B1CF5
:104910008AE00E941A1C8AE00E941A1C1091060765
:10492000C11112C00E94AB1C87E29BE00E942B1CAD
:1049300084E99CE00E942B1C112309F4D3C18AE076
:104940000E941A1C0E94AB1C409102075091030761
:10495000609104077091050780E89CE00E94FA22AC
:104960008AE00E941A1C111108C0C11102C00E94E5
:10497000AB1C85E79CE00E942B1C41E065E67CE0D7
:104980008C2F0E94BD1C8D2F0E940B2341E068E4F8
:104990007CE08C2F0E94BD1CC11102C00E94AB1C88
:1049A0004091480C5091490C60914A0C70914B0C0D
:1049B0008FE39CE00E94FA2240914C0C50914D0CE8
:1049C00060914E0C70914F0C84E993E10E94FA22A1
:1049D0004091500C5091510C6091520C7091530CBD
:1049E00081E993E10E94FA224091540C5091550CB8
:1049F0006091560C7091570C8EE893E10E94FA2258
:104A00008AE00E941A1C41E06EE17CE08C2F0E943B
:104A1000BD1CC11102C00E94AB1C6091240C70919E
:104A2000250C8091260C9091270C0E947C85AB016F
:104A3000BC0185E19CE00E94FA226091280C7091F3
:104A4000290C80912A0C90912B0C0E947C85AB0143
:104A5000BC0184E993E10E94FA2260912C0C7091D0
:104A60002D0C80912E0C90912F0C0E947C85AB0117
:104A7000BC0181E993E10E94FA226091300C7091AF
:104A8000310C8091320C9091330C0E947C85AB01EB
:104A9000BC018EE893E10E94FA228AE00E941A1C6F
:104AA00041E06CEC7BE08C2F0E94BD1CC11102C068
:104AB0000E94AB1C4091580C5091590C60915A0CBB
:104AC00070915B0C83EC9BE00E94FA2240915C0C9D
:104AD00050915D0C60915E0C70915F0C8FE290E1E3
:104AE0000E94FA224091600C5091610C6091620C1E
:104AF0007091630C8CE290E10E94FA228AE00E949D
:104B00001A1C41E06FE67BE08C2F0E94BD1CC11196
:104B100002C00E94AB1C6091340C7091350C8091E6
:104B2000360C9091370C0E947C85AB01BC0186E667
:104B30009BE00E94FA224091640C5091650C6091B8
:104B4000660C7091670C8AE392E10E94FA22409110
:104B5000680C5091690C60916A0C70916B0C8CE23E
:104B600090E10E94FA224091880750918907609154
:104B70008A0770918B0783E69BE00E94FA228AE005
:104B80000E941A1C41E066E57BE08C2F0E94BD1C50
:104B9000C11102C00E94AB1C4091F6065091F7066D
:104BA0006091F8067091F9068DE49BE00E94FA226C
:104BB0004091FA065091FB066091FC067091FD064B
:104BC00084E993E10E94FA224091FE065091FF068B
:104BD000609100077091010781E993E10E94FA2238
:104BE0008AE00E941A1C41E06FE37BE08C2F0E9458
:104BF000BD1CC11102C00E94AB1C409136075091F0
:104C00003707609138077091390786E39BE00E946F
:104C1000FA222CEA35EC47E25EE360913A077091A4
:104C20003B0780913C0790913D070E942B8DAB0183
:104C3000BC018AE29BE00E94FA222CEA35EC47E2B2
:104C40005EE360913E0770913F078091400790912D
:104C500041070E94DD85AB01BC0186E89CE00E9413
:104C6000FA228AE00E941A1CC11102C00E94AB1CE9
:104C700040911F07509120076091210770912207F2
:104C80008DE29BE00E94FA222CEA35EC47E25EE3DB
:104C90006091230770912407809125079091260742
:104CA0000E942B8DAB01BC018AE29BE00E94FA229C
:104CB0002CEA35EC47E25EE3609127077091280704
:104CC0008091290790912A070E94DD85AB01BC01E4
:104CD00086E89CE00E94FA228AE0DF91CF911F9142
:104CE0000C941A1C89E89CE00E942B1C2BCE8DE0B2
:104CF0000E941A1C8AE00C941A1C8091B4038093C1
:104D0000B50381EA99E00E942B1C60916E0C7091B2
:104D10006F0C8091700C9091710C6F5F7F4F8F4F73
:104D20009F4F0E94EB210E947726E091CD06F0E094
:104D3000E952F34F8081882339F085ED9EE00E948F
:104D40002B1C8AE00C941A1C0895CF93DF93EC017E
:104D50000E94A71CCE010E942B1C60916E0C7091CA
:104D60006F0C8091700C9091710C0E94EB210E944D
:104D700077260E94D91C0196E1F70E947D261092A9
:104D80006D0C10926C0CDF91CF9108950F931F93CF
:104D9000CF938C01C62F86E599E00E942B1CC80199
:104DA0000E942B1C8AE30E941A1C6C2F70E090E07A
:104DB00080E00E94EB21CF911F910F910C947726F8
:104DC000CF93DF93EC018991882319F00E941A1C7C
:104DD000FACFDF91CF910C947726CF93FC01C08D51
:104DE000C11106C0C18DC11108C08C2FCF9108958B
:104DF00082E892E00E94E026F8CF6281738181E729
:104E000099E00E9477228AE00E941A1CEECF2F922E
:104E10003F924F925F926F927F928F929F92AF924A
:104E2000BF92CF92DF92EF92FF920F931F93CF9397
:104E3000DF93CDB7DEB764970FB6F894DEBF0FBE31
:104E4000CDBFF82E062F642E26E0829F600111242C
:104E5000F601E452FB4E45905490C60186529B4E9B
:104E60005C01FC0125903490F201808190E0B0E07B
:104E7000A0E0B695A79597958795F10110811370DD
:104E8000282F2470122BF4E04F1302C08870182BC7
:104E900088E298E00E942B1C30E3732E7F0C872D54
:104EA0000E941A1C802F0E941A1C83E00E94211C61
:104EB000802E002E000C9908F401E154F10923E042
:104EC000F29EE00DF11D1124EE0FFF1FEA54FB4E80
:104ED000CE0101967C0193E069121BC0A591B491AB
:104EE0008C911F928F9384E997E09F938F93FF9209
:104EF000EF920E9447850F900F900F900F900F90A8
:104F00000F90F70181917F01882309F10E941A1CFB
:104F1000F8CFA591B49111968C9111978F938C91A4
:104F20008F9384E997E09F938F93FF92EF920E9473
:104F300047850F900F900F900F900F900F90F701F3
:104F400081917F01882319F00E941A1CF8CF612FEC
:104F500070E08EE198E00E947722F501E590F490F0
:104F60008EE997E00E942B1C872D0E941A1C802F2F
:104F70000E941A1CF701608170E083E090E08819BC
:104F80009909880F991F02C0759567958A95E2F770
:104F90006370772782E198E00E947722F201808196
:104FA0008770882E912CB12CA12C85E198E00E946D
:104FB0002B1C4AE0C501B4010E94872188E098E0DB
:104FC0000E942B1C872D0E941A1CF101608170E049
:104FD00081E198E00E94772288E098E00E942B1CF3
:104FE000872D0E941A1CF201608170E084E098E035
:104FF0000E947722F601E252FB4EE590F4908AEF90
:1050000097E00E942B1C872D0E941A1CF7016081DB
:1050100070E082E198E00E9477220054F3E06F1282
:1050200039C0197F21F486EA97E00E942B1CF70112
:10503000808190E0B0E0A0E004C0B695A795979578
:1050400087950A95D2F780FF04C08FEB97E00E9406
:105050002B1CF701808180FF04C08CED97E00E943B
:105060002B1C64960FB6F894DEBF0FBECDBFDF9148
:10507000CF911F910F91FF90EF90DF90CF90BF9055
:10508000AF909F908F907F906F905F904F903F90E8
:105090002F900895812F8B7F31F21C50123038F6FB
:1050A000C2CFCF93DF93C82FD0E0FE01EB5BF04E71
:1050B000E491E150E231F0F4F0E08827ED59F74D4A
:1050C0008F4F0C94288C7528A528A828AC28AF28C9
:1050D0007A28B228B628B928BD28C028C328C728EE
:1050E000CA287A28CD28D128D42843E061E480E07A
:1050F0000E94072780E499E00E942B1CFE01E254E5
:10510000F04EE491E23009F052C0FE01EC5FFF4D39
:10511000E491E03809F04BC084E598E00E942B1C34
:1051200082E10E94211C8CE498E00E942B1C82E307
:1051300098E00E942B1C8EE00E94211C44E063E456
:1051400081E0DF91CF910C94072743E062E4CFCF59
:1051500044E061E481E0CCCF44E062E4FBCF44E092
:1051600063E4F8CF43E061E482E0C2CF43E062E46D
:10517000FBCF44E061E483E0BBCF44E062E4FBCFDB
:1051800044E063E4F8CF44E061E484E0B1CF44E07C
:1051900062E4FBCF44E063E4F8CF44E061E485E0FF
:1051A000A7CF44E062E4FBCF44E063E4F8CFDF91B3
:1051B000CF9108950F931F93CF93DF93CDB7DEB7B1
:1051C00064970FB6F894DEBF0FBECDBFE82FF0E0B6
:1051D000EB5BF04EE491E150E23108F066C2F0E0A2
:1051E0008827EA50F74D8F4F0C94288C08293429D2
:1051F000542979299E29552BC329E629092A2E2AC3
:10520000532A782A9D2AC22A552BE72A0C2B312BA8
:1052100084B5807C09F449C287B51F928F9384E9D5
:1052200097E09F938F938E010F5F1F4F1F930F93F4
:105230000E9447850F900F900F900F900F900F9046
:10524000F80181918F0181110CC081E064960FB645
:10525000F894DEBF0FBECDBFDF91CF911F910F91AC
:1052600008950E941A1CECCF84B5807309F41DC206
:1052700088B51F928F9384E997E09F938F938E0157
:105280000F5F1F4F1F930F930E9447850F900F9042
:105290000F900F900F900F90F80181918F0188234C
:1052A000A1F20E941A1CF8CF80918000807C09F442
:1052B000FCC180918800909189009F938F9384E92D
:1052C00097E09F938F938E010F5F1F4F1F930F9354
:1052D0000E9447850F900F900F900F900F900F90A6
:1052E000F80181918F01882309F4AFCF0E941A1C25
:1052F000F7CF80918000807309F4D7C180918A0034
:1053000090918B009F938F9384E997E09F938F9365
:105310008E010F5F1F4F1F930F930E9447850F90C1
:105320000F900F900F900F900F90F80181918F01C7
:10533000882309F48ACF0E941A1CF7CF809180003D
:105340008C7009F4B2C180918C0090918D009F9374
:105350008F9384E997E09F938F938E010F5F1F4F88
:105360001F930F930E9447850F900F900F900F90FF
:105370000F900F90F80181918F01882309F465CF78
:105380000E941A1CF7CF8091B000807C09F48DC177
:105390008091B3001F928F9384E997E09F938F933E
:1053A0008E010F5F1F4F1F930F930E9447850F9031
:1053B0000F900F900F900F900F90F80181918F0137
:1053C000882309F442CF0E941A1CF7CF8091B000C5
:1053D000807309F46AC18091B4001F928F9384E9AD
:1053E00097E09F938F938E010F5F1F4F1F930F9333
:1053F0000E9447850F900F900F900F900F900F9085
:10540000F80181918F01882309F41FCF0E941A1C93
:10541000F7CF80919000807C09F447C1809198007B
:10542000909199009F938F9384E997E09F938F9336
:105430008E010F5F1F4F1F930F930E9447850F90A0
:105440000F900F900F900F900F90F80181918F01A6
:10545000882309F4FACE0E941A1CF7CF809190009D
:10546000807309F422C180919A0090919B009F93D0
:105470008F9384E997E09F938F938E010F5F1F4F67
:105480001F930F930E9447850F900F900F900F90DE
:105490000F900F90F80181918F01882309F4D5CEE8
:1054A0000E941A1CF7CF809190008C7009F4FDC007
:1054B00080919C0090919D009F938F9384E997E049
:1054C0009F938F938E010F5F1F4F1F930F930E9427
:1054D00047850F900F900F900F900F900F90F8014D
:1054E00081918F01882309F4B0CE0E941A1CF7CF56
:1054F0008091A000807C09F4D8C08091A800909190
:10550000A9009F938F9384E997E09F938F938E01D7
:105510000F5F1F4F1F930F930E9447850F900F90AF
:105520000F900F900F900F90F80181918F018823B9
:1055300009F48BCE0E941A1CF7CF8091A0008073D3
:1055400009F4B3C08091AA009091AB009F938F9310
:1055500084E997E09F938F938E010F5F1F4F1F93F6
:105560000F930E9447850F900F900F900F900F9010
:105570000F90F80181918F01882309F466CE0E9473
:105580001A1CF7CF8091A0008C7009F48EC0809116
:10559000AC009091AD009F938F9384E997E09F9327
:1055A0008F938E010F5F1F4F1F930F930E944785AC
:1055B0000F900F900F900F900F900F90F801819126
:1055C0008F01882309F441CE0E941A1CF7CF8091E5
:1055D0002001807C09F469C0809128019091290103
:1055E0009F938F9384E997E09F938F938E010F5F32
:1055F0001F4F1F930F930E9447850F900F900F909E
:105600000F900F900F90F80181918F01882309F47A
:105610001CCE0E941A1CF7CF80912001807309F4E0
:1056200044C080912A0190912B019F938F9384E92C
:1056300097E09F938F938E010F5F1F4F1F930F93E0
:105640000E9447850F900F900F900F900F900F9032
:10565000F80181918F01882309F4F7CD0E941A1C6B
:10566000F7CF809120018C7001F180912C019091F5
:105670002D019F938F9384E997E09F938F938E01E1
:105680000F5F1F4F1F930F930E9447850F900F903E
:105690000F900F900F900F90F80181918F01882348
:1056A00009F4D3CD0E941A1CF7CF80E0CFCDEF9242
:1056B000FF920F931F93CF93DF93CDB7DEB762971F
:1056C0000FB6F894DEBF0FBECDBF9091790786E08C
:1056D00090FF87E091FD8D7F92FF12C08B7FC9F50F
:1056E00062960FB6F894DEBF0FBECDBFDF91CF91AB
:1056F0001F910F91FF90EF90089582EA92E00CC005
:105700002EE932E04DE952E081FF02C040EA52E06A
:1057100080FDF3CF8DE992E03F932F935F934F93FA
:105720009F938F938EE593E19F938F93CE01019684
:105730007C019F938F930E9447850E94AB1CC701F9
:105740000E94E0260FB6F894DEBF0FBECDBF81E009
:10575000C7CF2DE932E0D6CFAF92BF92CF92DF9282
:10576000EF92FF920F931F93CF93DF93CDB7DEB7E6
:105770002C970FB6F894DEBF0FBECDBFE62E2CE6F9
:10578000C22E22E0D22E5C01F12C80E20E941A1C73
:10579000F60181916F010E941A1C8AE30E941A1C73
:1057A000F50161917191819191915F018E010F5F7E
:1057B0001F4F23E041E00E9428808C01F801819175
:1057C0008F01882319F00E941A1CF8CFF394EF1070
:1057D000DCCF8AE00E941A1C2C960FB6F894DEBF2C
:1057E0000FBECDBFDF91CF911F910F91FF90EF9032
:1057F000DF90CF90BF90AF900895FF920F931F93CB
:10580000CF93DF931F92CDB7DEB7F82E0EE914E1E8
:1058100041E050E0B801CE0101960E9403858981E4
:105820008F1108C081E00F90DF91CF911F910F91F0
:10583000FF9008950F5F1F4F84E1063B180741F763
:1058400080E0F1CF85ED8093BC008091BA0C9091FF
:10585000BB0CA091BC0CB091BD0C0796A11DB11D55
:1058600023E0B695A795979587952A95D1F720912E
:10587000BC0024FD03C01092B80C08954091BA0CEE
:105880005091BB0C6091BC0C7091BD0C452B462B0C
:10589000472B69F30097A105B10541F025E32A954F
:1058A000F1F700000197A109B109E1CF8091B90C8E
:1058B0000C9434154F925F926F927F928F929F92C9
:1058C000AF92BF92CF92DF92EF92FF920F931F930E
:1058D000CF93DF93CDB7DEB76A970FB6F894DEBFEC
:1058E0000FBECDBF9A8F898F5B018A01DC01D696EE
:1058F0006D917D918D919C91D9970E947C856B01D2
:105900007C01F50120813181428153810E94DD8536
:105910000E940F8D2B013C01D8012D913D914D919D
:105920005C91C701B6010E94DD850E940F8D4B017D
:105930005C01C301B2010E94A48D698B7A8B8B8BB1
:105940009C8B683771058105910540F428E730E0AC
:1059500040E050E0298B3A8B4B8B5C8BC501B40146
:105960000E94A48D6D877E878F87988B683771051D
:105970008105910540F488E790E0A0E0B0E08D87D4
:105980009E87AF87B88BE98DFA8DEE5BFF4F208144
:1059900031814281538129833A834B835C83CA01DD
:1059A000B9010E947E852B013C0169897A898B8926
:1059B0009C890E947C8569877A878B879C8720E0F9
:1059C00030E0A901C301B2010E947785882309F460
:1059D0003BC1A7019601C701B6010E94DD854B01BD
:1059E0005C0129853A854B855C85CA01B9010E9415
:1059F000DD859B01AC01C501B4010E94308C4B01D7
:105A00005C01A3019201C301B2010E94318C9B0190
:105A1000AC01C501B4010E942B8D0E940F8D0E9424
:105A2000A48D6D837E838F83988769817A818B8132
:105A30009C8190958095709561957F4F8F4F9F4F7A
:105A40000E947E854B015C016D857E858F859889DE
:105A50000E947C8569837A838B839C8320E030E07D
:105A6000A901C501B4010E947785882309F4F0C01B
:105A700029813A814B815C81CA01B9010E94DD858F
:105A80006D8B7E8B8F8B988FA7019601C701B60116
:105A90000E94DD859B01AC016D897E898F89988D7F
:105AA0000E94308C6B017C01A5019401C501B401F9
:105AB0000E94318C9B01AC01C701B6010E942B8D65
:105AC0000E94D38DA98DBA8D95968D909D90AD90A5
:105AD000BC909897750164012D813E814F81588556
